{
  "contractName": "raceEnrollment",
  "abi": [
    {
      "constant": true,
      "inputs": [
        {
          "name": "",
          "type": "uint256"
        }
      ],
      "name": "allAdresses",
      "outputs": [
        {
          "name": "",
          "type": "address"
        }
      ],
      "payable": false,
      "stateMutability": "view",
      "type": "function"
    },
    {
      "constant": true,
      "inputs": [],
      "name": "owner",
      "outputs": [
        {
          "name": "",
          "type": "address"
        }
      ],
      "payable": false,
      "stateMutability": "view",
      "type": "function"
    },
    {
      "constant": true,
      "inputs": [],
      "name": "isOwner",
      "outputs": [
        {
          "name": "",
          "type": "bool"
        }
      ],
      "payable": false,
      "stateMutability": "view",
      "type": "function"
    },
    {
      "payable": true,
      "stateMutability": "payable",
      "type": "fallback"
    },
    {
      "anonymous": false,
      "inputs": [
        {
          "indexed": false,
          "name": "balanceOwner",
          "type": "uint256"
        },
        {
          "indexed": false,
          "name": "addressRunner",
          "type": "address"
        }
      ],
      "name": "logEnrollment",
      "type": "event"
    },
    {
      "anonymous": false,
      "inputs": [
        {
          "indexed": false,
          "name": "addressRunner",
          "type": "address"
        },
        {
          "indexed": false,
          "name": "timeRace",
          "type": "uint256"
        }
      ],
      "name": "logSimulateTimeRace",
      "type": "event"
    },
    {
      "constant": false,
      "inputs": [
        {
          "name": "_name",
          "type": "string"
        },
        {
          "name": "_surname",
          "type": "string"
        },
        {
          "name": "_age",
          "type": "uint256"
        },
        {
          "name": "_dni",
          "type": "string"
        },
        {
          "name": "_raceTime",
          "type": "uint256"
        }
      ],
      "name": "enrollRunner",
      "outputs": [],
      "payable": true,
      "stateMutability": "payable",
      "type": "function"
    },
    {
      "constant": true,
      "inputs": [],
      "name": "getAddressRunner",
      "outputs": [
        {
          "name": "",
          "type": "address"
        }
      ],
      "payable": false,
      "stateMutability": "view",
      "type": "function"
    },
    {
      "constant": true,
      "inputs": [],
      "name": "getBalanceTotalEnrollments",
      "outputs": [
        {
          "name": "",
          "type": "uint256"
        }
      ],
      "payable": false,
      "stateMutability": "view",
      "type": "function"
    },
    {
      "constant": true,
      "inputs": [
        {
          "name": "_addressRunner",
          "type": "address"
        }
      ],
      "name": "getAttributesRunner",
      "outputs": [
        {
          "name": "_name",
          "type": "string"
        },
        {
          "name": "_surname",
          "type": "string"
        },
        {
          "name": "_age",
          "type": "uint256"
        },
        {
          "name": "_dni",
          "type": "string"
        },
        {
          "name": "_raceTime",
          "type": "uint256"
        }
      ],
      "payable": false,
      "stateMutability": "view",
      "type": "function"
    },
    {
      "constant": true,
      "inputs": [],
      "name": "getAllAddresses",
      "outputs": [
        {
          "name": "",
          "type": "address[]"
        }
      ],
      "payable": false,
      "stateMutability": "view",
      "type": "function"
    },
    {
      "constant": false,
      "inputs": [
        {
          "name": "_addressRunner",
          "type": "address"
        },
        {
          "name": "_raceTime",
          "type": "uint256"
        }
      ],
      "name": "setTimeRace",
      "outputs": [],
      "payable": false,
      "stateMutability": "nonpayable",
      "type": "function"
    },
    {
      "constant": false,
      "inputs": [
        {
          "name": "winner",
          "type": "address"
        }
      ],
      "name": "payPrice",
      "outputs": [],
      "payable": false,
      "stateMutability": "nonpayable",
      "type": "function"
    }
  ],
  "bytecode": "0x60806040526000600255336000806101000a81548173ffffffffffffffffffffffffffffffffffffffff021916908373ffffffffffffffffffffffffffffffffffffffff1602179055506110b8806100586000396000f3006080604052600436106100a4576000357c0100000000000000000000000000000000000000000000000000000000900463ffffffff16806324592b0d146100a95780632de6540f146101165780638da5cb5b146101635780638f32d59b146101ba5780639516a104146101e9578063aca84b5914610255578063b63f8c8314610298578063b98aea4114610394578063dd4b831514610536578063e86ce2c514610561575b600080fd5b3480156100b557600080fd5b506100d4600480360381019080803590602001909291905050506105b8565b604051808273ffffffffffffffffffffffffffffffffffffffff1673ffffffffffffffffffffffffffffffffffffffff16815260200191505060405180910390f35b34801561012257600080fd5b50610161600480360381019080803573ffffffffffffffffffffffffffffffffffffffff169060200190929190803590602001909291905050506105f6565b005b34801561016f57600080fd5b506101786106ac565b604051808273ffffffffffffffffffffffffffffffffffffffff1673ffffffffffffffffffffffffffffffffffffffff16815260200191505060405180910390f35b3480156101c657600080fd5b506101cf6106d1565b604051808215151515815260200191505060405180910390f35b3480156101f557600080fd5b506101fe610728565b6040518080602001828103825283818151815260200191508051906020019060200280838360005b83811015610241578082015181840152602081019050610226565b505050509050019250505060405180910390f35b34801561026157600080fd5b50610296600480360381019080803573ffffffffffffffffffffffffffffffffffffffff1690602001909291905050506107c9565b005b610392600480360381019080803590602001908201803590602001908080601f0160208091040260200160405190810160405280939291908181526020018383808284378201915050505050509192919290803590602001908201803590602001908080601f016020809104026020016040519081016040528093929190818152602001838380828437820191505050505050919291929080359060200190929190803590602001908201803590602001908080601f0160208091040260200160405190810160405280939291908181526020018383808284378201915050505050509192919290803590602001909291905050506108f2565b005b3480156103a057600080fd5b506103d5600480360381019080803573ffffffffffffffffffffffffffffffffffffffff169060200190929190505050610c28565b60405180806020018060200186815260200180602001858152602001848103845289818151815260200191508051906020019080838360005b8381101561042957808201518184015260208101905061040e565b50505050905090810190601f1680156104565780820380516001836020036101000a031916815260200191505b50848103835288818151815260200191508051906020019080838360005b8381101561048f578082015181840152602081019050610474565b50505050905090810190601f1680156104bc5780820380516001836020036101000a031916815260200191505b50848103825286818151815260200191508051906020019080838360005b838110156104f55780820151818401526020810190506104da565b50505050905090810190601f1680156105225780820380516001836020036101000a031916815260200191505b509850505050505050505060405180910390f35b34801561054257600080fd5b5061054b610f6a565b6040518082815260200191505060405180910390f35b34801561056d57600080fd5b50610576610fd2565b604051808273ffffffffffffffffffffffffffffffffffffffff1673ffffffffffffffffffffffffffffffffffffffff16815260200191505060405180910390f35b6001818154811015156105c757fe5b906000526020600020016000915054906101000a900473ffffffffffffffffffffffffffffffffffffffff1681565b80600360008473ffffffffffffffffffffffffffffffffffffffff1673ffffffffffffffffffffffffffffffffffffffff168152602001908152602001600020600501819055507f39b06b46cec1d0170a5b37441548f7bd15e1773db77e2ea118cac606783cbaa48282604051808373ffffffffffffffffffffffffffffffffffffffff1673ffffffffffffffffffffffffffffffffffffffff1681526020018281526020019250505060405180910390a15050565b6000809054906101000a900473ffffffffffffffffffffffffffffffffffffffff1681565b60008060009054906101000a900473ffffffffffffffffffffffffffffffffffffffff1673ffffffffffffffffffffffffffffffffffffffff163373ffffffffffffffffffffffffffffffffffffffff1614905090565b60606107326106d1565b151561073d57600080fd5b60018054806020026020016040519081016040528092919081815260200182805480156107bf57602002820191906000526020600020905b8160009054906101000a900473ffffffffffffffffffffffffffffffffffffffff1673ffffffffffffffffffffffffffffffffffffffff1681526020019060010190808311610775575b5050505050905090565b60006107d36106d1565b15156107de57600080fd5b600460008060009054906101000a900473ffffffffffffffffffffffffffffffffffffffff1673ffffffffffffffffffffffffffffffffffffffff1673ffffffffffffffffffffffffffffffffffffffff1681526020019081526020016000205490506000600460008060009054906101000a900473ffffffffffffffffffffffffffffffffffffffff1673ffffffffffffffffffffffffffffffffffffffff1673ffffffffffffffffffffffffffffffffffffffff168152602001908152602001600020819055508173ffffffffffffffffffffffffffffffffffffffff166108fc829081150290604051600060405180830381858888f193505050501580156108ed573d6000803e3d6000fd5b505050565b61090434674563918244f40000610fda565b151561090f57600080fd5b60013390806001815401808255809150509060018203906000526020600020016000909192909190916101000a81548173ffffffffffffffffffffffffffffffffffffffff021916908373ffffffffffffffffffffffffffffffffffffffff1602179055505060e0604051908101604052803373ffffffffffffffffffffffffffffffffffffffff168152602001868152602001858152602001848152602001838152602001828152602001600060018111156109c857fe5b815250600360003373ffffffffffffffffffffffffffffffffffffffff1673ffffffffffffffffffffffffffffffffffffffff16815260200190815260200160002060008201518160000160006101000a81548173ffffffffffffffffffffffffffffffffffffffff021916908373ffffffffffffffffffffffffffffffffffffffff1602179055506020820151816001019080519060200190610a6d929190610fe7565b506040820151816002019080519060200190610a8a929190610fe7565b50606082015181600301556080820151816004019080519060200190610ab1929190610fe7565b5060a0820151816005015560c08201518160060160006101000a81548160ff02191690836001811115610ae057fe5b021790555090505034600460008060009054906101000a900473ffffffffffffffffffffffffffffffffffffffff1673ffffffffffffffffffffffffffffffffffffffff1673ffffffffffffffffffffffffffffffffffffffff168152602001908152602001600020600082825401925050819055507fad043004001bae96f136503d87fce708d712d01737317839efedd842dce4ad35600460008060009054906101000a900473ffffffffffffffffffffffffffffffffffffffff1673ffffffffffffffffffffffffffffffffffffffff1673ffffffffffffffffffffffffffffffffffffffff1681526020019081526020016000205433604051808381526020018273ffffffffffffffffffffffffffffffffffffffff1673ffffffffffffffffffffffffffffffffffffffff1681526020019250505060405180910390a15050505050565b606080600060606000600360008773ffffffffffffffffffffffffffffffffffffffff1673ffffffffffffffffffffffffffffffffffffffff1681526020019081526020016000206001018054600181600116156101000203166002900480601f016020809104026020016040519081016040528092919081815260200182805460018160011615610100020316600290048015610d075780601f10610cdc57610100808354040283529160200191610d07565b820191906000526020600020905b815481529060010190602001808311610cea57829003601f168201915b50505050509450600360008773ffffffffffffffffffffffffffffffffffffffff1673ffffffffffffffffffffffffffffffffffffffff1681526020019081526020016000206002018054600181600116156101000203166002900480601f016020809104026020016040519081016040528092919081815260200182805460018160011615610100020316600290048015610de45780601f10610db957610100808354040283529160200191610de4565b820191906000526020600020905b815481529060010190602001808311610dc757829003601f168201915b50505050509350600360008773ffffffffffffffffffffffffffffffffffffffff1673ffffffffffffffffffffffffffffffffffffffff168152602001908152602001600020600301549250600360008773ffffffffffffffffffffffffffffffffffffffff1673ffffffffffffffffffffffffffffffffffffffff1681526020019081526020016000206004018054600181600116156101000203166002900480601f016020809104026020016040519081016040528092919081815260200182805460018160011615610100020316600290048015610f065780601f10610edb57610100808354040283529160200191610f06565b820191906000526020600020905b815481529060010190602001808311610ee957829003601f168201915b50505050509150600360008773ffffffffffffffffffffffffffffffffffffffff1673ffffffffffffffffffffffffffffffffffffffff16815260200190815260200160002060050154905084848484849450945094509450945091939590929450565b6000600460008060009054906101000a900473ffffffffffffffffffffffffffffffffffffffff1673ffffffffffffffffffffffffffffffffffffffff1673ffffffffffffffffffffffffffffffffffffffff16815260200190815260200160002054905090565b600033905090565b6000818314905092915050565b828054600181600116156101000203166002900490600052602060002090601f016020900481019282601f1061102857805160ff1916838001178555611056565b82800160010185558215611056579182015b8281111561105557825182559160200191906001019061103a565b5b5090506110639190611067565b5090565b61108991905b8082111561108557600081600090555060010161106d565b5090565b905600a165627a7a72305820222cbb2a7a71ef8c9b8ed4f737a889b9b0d885fe4d378e2b06c9a5e342b9ecc00029",
  "source": "pragma solidity ^0.4.24;\n\n/**\n * Import Ownable Contract\n */\n\nimport \"./Ownable.sol\";\n/**\n * Import Enrollment Library\n */\nimport \"./EnrollmentLib.sol\";\n\ncontract raceEnrollment is Ownable {\n\n    uint constant FEE_RACE = 5 ether;\n    address[] public allAdresses;\n    uint i=0;\n\n    enum Status {\n        Enrolled,\n        NotEnrolled\n    }\n\n    struct Runner {\n        address addressRunner;\n        string name;\n        string surname;\n        uint   age;\n        string dni;\n        uint   raceTime;\n        Status status;\n    }\n\n    //Look for runners enrolled by address\n    mapping (address => Runner) private runnersByAdress;\n    //Balance of the race's owner\n    mapping (address => uint) private balances;\n\n    // Events - publicize actions to external listeners\n    event logEnrollment(uint balanceOwner, address addressRunner);\n    event logSimulateTimeRace(address addressRunner, uint timeRace);\n\n\n    /// @notice Enroll runner in the race\n    function enrollRunner(string _name, string _surname, uint _age, string _dni, uint _raceTime) \n    public \n    payable \n    {     \n      require(EnrollmentLib.isValidFee(msg.value, FEE_RACE));\n      allAdresses.push(msg.sender);\n      runnersByAdress[msg.sender] = Runner ({addressRunner: msg.sender, name: _name, surname: _surname, age: _age, dni: _dni,\n        raceTime: _raceTime, status: Status.Enrolled });\n      balances[owner] += msg.value;\n      emit logEnrollment(balances[owner], msg.sender); //Front catches this event\n    }\n\n    // Get the address of the runner enrolled\n    function getAddressRunner() public view returns (address) {\n        return msg.sender;\n    }\n   \n     // Get the balance of the funds collected during the enrollment (Balance of the race's owner)\n    function getBalanceTotalEnrollments() public view returns (uint) {\n        return balances[owner];\n    }\n\n    // Get the attributes of the Runners of the marathon\n    function getAttributesRunner(address _addressRunner) public view returns (string _name, string _surname, uint _age, string _dni, uint _raceTime) {\n        \n        _name = runnersByAdress[_addressRunner].name;\n        _surname = runnersByAdress[_addressRunner].surname;\n        _age = runnersByAdress[_addressRunner].age;\n        _dni = runnersByAdress[_addressRunner].dni;\n        _raceTime = runnersByAdress[_addressRunner].raceTime;\n        \n        return (_name, _surname, _age, _dni, _raceTime);\n    }\n\n    // Get all the addresses enrolled in the race\n    function getAllAddresses() \n    public \n    onlyOwner\n    view \n    returns (address[]) \n    {\n        return allAdresses;\n    }\n\n    // Set the simulated time performed by each runner to finish the race\n    function setTimeRace(address _addressRunner, uint _raceTime) \n    public     \n    {\n      runnersByAdress[_addressRunner].raceTime = _raceTime;\n      emit logSimulateTimeRace(_addressRunner, _raceTime); //Front catches this event\n\n    }\n\n    /// @notice Only the Owner of the Race can pay a price to the winner\n    /// @param  winner address to pay the price\n    function payPrice(address winner) \n    public \n    onlyOwner\n    {\n           uint amountPrice = balances[owner];\n           balances[owner] = 0;\n           winner.transfer(amountPrice);\n    }\n\n\n    // Fallback function - Called if other functions don't match call or sent ether without data\n    // Typically, called when invalid data is sent\n    // Added so ether sent to this contract is reverted if the contract fails\n    // otherwise, the sender's money is transferred to contract\n    function () public payable{ \n        revert();\n    }\n}",
  "sourcePath": "/home/antonio/src/MASTERETH/PEC3/marathon/contracts/raceEnrollment.sol",
  "compiler": {
    "name": "solc",
    "version": "0.4.24+commit.e67f0147.Emscripten.clang"
  },
  "schemaVersion": "2.0.1",
  "updatedAt": "2018-11-13T17:30:01.802Z"
}