{
  "contractName": "raceEnrollment",
  "abi": [
    {
      "constant": true,
      "inputs": [],
      "name": "owner",
      "outputs": [
        {
          "name": "",
          "type": "address"
        }
      ],
      "payable": false,
      "stateMutability": "view",
      "type": "function"
    },
    {
      "constant": true,
      "inputs": [],
      "name": "isOwner",
      "outputs": [
        {
          "name": "",
          "type": "bool"
        }
      ],
      "payable": false,
      "stateMutability": "view",
      "type": "function"
    },
    {
      "payable": true,
      "stateMutability": "payable",
      "type": "fallback"
    },
    {
      "anonymous": false,
      "inputs": [
        {
          "indexed": false,
          "name": "balanceOwner",
          "type": "uint256"
        },
        {
          "indexed": false,
          "name": "addressRunner",
          "type": "address"
        }
      ],
      "name": "logEnrollment",
      "type": "event"
    },
    {
      "constant": false,
      "inputs": [],
      "name": "enrollRunner",
      "outputs": [],
      "payable": true,
      "stateMutability": "payable",
      "type": "function"
    },
    {
      "constant": true,
      "inputs": [],
      "name": "getAddressRunner",
      "outputs": [
        {
          "name": "",
          "type": "address"
        }
      ],
      "payable": false,
      "stateMutability": "view",
      "type": "function"
    },
    {
      "constant": true,
      "inputs": [],
      "name": "getBalanceTotalEnrollments",
      "outputs": [
        {
          "name": "",
          "type": "uint256"
        }
      ],
      "payable": false,
      "stateMutability": "view",
      "type": "function"
    },
    {
      "constant": false,
      "inputs": [
        {
          "name": "winner",
          "type": "address"
        }
      ],
      "name": "payPrice",
      "outputs": [],
      "payable": false,
      "stateMutability": "nonpayable",
      "type": "function"
    }
  ],
  "bytecode": "0x60806040526005600155336000806101000a81548173ffffffffffffffffffffffffffffffffffffffff021916908373ffffffffffffffffffffffffffffffffffffffff16021790555061054e806100586000396000f300608060405260043610610078576000357c0100000000000000000000000000000000000000000000000000000000900463ffffffff168063721230511461007d5780638da5cb5b146100875780638f32d59b146100de578063aca84b591461010d578063dd4b831514610150578063e86ce2c51461017b575b600080fd5b6100856101d2565b005b34801561009357600080fd5b5061009c61030d565b604051808273ffffffffffffffffffffffffffffffffffffffff1673ffffffffffffffffffffffffffffffffffffffff16815260200191505060405180910390f35b3480156100ea57600080fd5b506100f3610332565b604051808215151515815260200191505060405180910390f35b34801561011957600080fd5b5061014e600480360381019080803573ffffffffffffffffffffffffffffffffffffffff169060200190929190505050610389565b005b34801561015c57600080fd5b506101656104b2565b6040518082815260200191505060405180910390f35b34801561018757600080fd5b5061019061051a565b604051808273ffffffffffffffffffffffffffffffffffffffff1673ffffffffffffffffffffffffffffffffffffffff16815260200191505060405180910390f35b34600460008060009054906101000a900473ffffffffffffffffffffffffffffffffffffffff1673ffffffffffffffffffffffffffffffffffffffff1673ffffffffffffffffffffffffffffffffffffffff168152602001908152602001600020600082825401925050819055507fad043004001bae96f136503d87fce708d712d01737317839efedd842dce4ad35600460008060009054906101000a900473ffffffffffffffffffffffffffffffffffffffff1673ffffffffffffffffffffffffffffffffffffffff1673ffffffffffffffffffffffffffffffffffffffff1681526020019081526020016000205433604051808381526020018273ffffffffffffffffffffffffffffffffffffffff1673ffffffffffffffffffffffffffffffffffffffff1681526020019250505060405180910390a1565b6000809054906101000a900473ffffffffffffffffffffffffffffffffffffffff1681565b60008060009054906101000a900473ffffffffffffffffffffffffffffffffffffffff1673ffffffffffffffffffffffffffffffffffffffff163373ffffffffffffffffffffffffffffffffffffffff1614905090565b6000610393610332565b151561039e57600080fd5b600460008060009054906101000a900473ffffffffffffffffffffffffffffffffffffffff1673ffffffffffffffffffffffffffffffffffffffff1673ffffffffffffffffffffffffffffffffffffffff1681526020019081526020016000205490506000600460008060009054906101000a900473ffffffffffffffffffffffffffffffffffffffff1673ffffffffffffffffffffffffffffffffffffffff1673ffffffffffffffffffffffffffffffffffffffff168152602001908152602001600020819055508173ffffffffffffffffffffffffffffffffffffffff166108fc829081150290604051600060405180830381858888f193505050501580156104ad573d6000803e3d6000fd5b505050565b6000600460008060009054906101000a900473ffffffffffffffffffffffffffffffffffffffff1673ffffffffffffffffffffffffffffffffffffffff1673ffffffffffffffffffffffffffffffffffffffff16815260200190815260200160002054905090565b6000339050905600a165627a7a72305820f401f83bc7a1de3eb59c92d1ede7bf1ca407f105ac756468a06886650c40cab20029",
  "source": "pragma solidity ^0.4.24;\n\n/**\n * Import Ownable Contract\n */\n\nimport \"./Ownable.sol\";\n/**\n * Import Enrollment Library\n */\nimport \"./EnrollmentLib.sol\";\n\ncontract raceEnrollment is Ownable {\n    \n    uint256 feeRace = 5;\n\n    struct Runner {\n        address addressRunner;\n        string name;\n        string surname;\n        string age;\n        string dni;\n        uint   raceTime;\n    }\n\n    //Look for runners enrolled by address\n    mapping (address => Runner) private runnersByAdress;\n    //Look for runners by race time\n    mapping (uint => Runner) private runnersByRaceTime;\n    //Balance of the race's owner\n    mapping (address => uint) private balances;\n\n    // Events - publicize actions to external listeners\n    event logEnrollment(uint balanceOwner, address addressRunner);\n\n    /// @notice Enroll runner in the race\n    /// @return The balance of the funds collected during the enrollment (Balance of the race's owner)\n    /// @return The address of the enrolled runner\n    function enrollRunner() public payable {\n//      require(EnrollmentLib.isValidFee(amount, feeRace));\n      balances[owner] += msg.value;\n      emit logEnrollment(balances[owner], msg.sender); //Front catches this event\n    }\n\n    // Get the address of the runner enrolled\n    function getAddressRunner() public view returns (address) {\n        return msg.sender;\n    }\n   \n     // Get the balance of the funds collected during the enrollment (Balance of the race's owner)\n    function getBalanceTotalEnrollments() public view returns (uint) {\n        return balances[owner];\n    }\n\n\n    /// @notice Only the Owner of the Race can pay a price to the winner\n    /// @param  winner address to pay the price\n    function payPrice(address winner) \n    public \n    onlyOwner\n    {\n           uint amountPrice = balances[owner];\n           balances[owner] = 0;\n           winner.transfer(amountPrice);\n    }\n\n\n    // Fallback function - Called if other functions don't match call or sent ether without data\n    // Typically, called when invalid data is sent\n    // Added so ether sent to this contract is reverted if the contract fails\n    // otherwise, the sender's money is transferred to contract\n    function () public payable{ \n        revert();\n    }\n}",
  "sourcePath": "/home/antonio/src/MASTERETH/PEC3/marathon/contracts/raceEnrollment.sol",
  "compiler": {
    "name": "solc",
    "version": "0.4.24+commit.e67f0147.Emscripten.clang"
  },
  "schemaVersion": "2.0.1",
  "updatedAt": "2018-11-04T09:22:14.058Z"
}