{
  "contractName": "raceEnrollment",
  "abi": [
    {
      "constant": true,
      "inputs": [
        {
          "name": "",
          "type": "uint256"
        }
      ],
      "name": "allAdresses",
      "outputs": [
        {
          "name": "",
          "type": "address"
        }
      ],
      "payable": false,
      "stateMutability": "view",
      "type": "function"
    },
    {
      "constant": true,
      "inputs": [],
      "name": "emergencyStop",
      "outputs": [
        {
          "name": "",
          "type": "bool"
        }
      ],
      "payable": false,
      "stateMutability": "view",
      "type": "function"
    },
    {
      "constant": true,
      "inputs": [],
      "name": "owner",
      "outputs": [
        {
          "name": "",
          "type": "address"
        }
      ],
      "payable": false,
      "stateMutability": "view",
      "type": "function"
    },
    {
      "constant": true,
      "inputs": [],
      "name": "isOwner",
      "outputs": [
        {
          "name": "",
          "type": "bool"
        }
      ],
      "payable": false,
      "stateMutability": "view",
      "type": "function"
    },
    {
      "payable": true,
      "stateMutability": "payable",
      "type": "fallback"
    },
    {
      "anonymous": false,
      "inputs": [
        {
          "indexed": false,
          "name": "balanceOwner",
          "type": "uint256"
        },
        {
          "indexed": false,
          "name": "addressRunner",
          "type": "address"
        }
      ],
      "name": "logEnrollment",
      "type": "event"
    },
    {
      "anonymous": false,
      "inputs": [
        {
          "indexed": false,
          "name": "addressRunner",
          "type": "address"
        },
        {
          "indexed": false,
          "name": "timeRace",
          "type": "uint256"
        }
      ],
      "name": "logSimulateTimeRace",
      "type": "event"
    },
    {
      "constant": false,
      "inputs": [
        {
          "name": "_name",
          "type": "string"
        },
        {
          "name": "_surname",
          "type": "string"
        },
        {
          "name": "_age",
          "type": "uint256"
        },
        {
          "name": "_dni",
          "type": "string"
        },
        {
          "name": "_raceTime",
          "type": "uint256"
        }
      ],
      "name": "enrollRunner",
      "outputs": [],
      "payable": true,
      "stateMutability": "payable",
      "type": "function"
    },
    {
      "constant": true,
      "inputs": [],
      "name": "getAddressRunner",
      "outputs": [
        {
          "name": "",
          "type": "address"
        }
      ],
      "payable": false,
      "stateMutability": "view",
      "type": "function"
    },
    {
      "constant": true,
      "inputs": [],
      "name": "getBalanceTotalEnrollments",
      "outputs": [
        {
          "name": "",
          "type": "uint256"
        }
      ],
      "payable": false,
      "stateMutability": "view",
      "type": "function"
    },
    {
      "constant": true,
      "inputs": [
        {
          "name": "_addressRunner",
          "type": "address"
        }
      ],
      "name": "getAttributesRunner",
      "outputs": [
        {
          "name": "_name",
          "type": "string"
        },
        {
          "name": "_surname",
          "type": "string"
        },
        {
          "name": "_age",
          "type": "uint256"
        },
        {
          "name": "_dni",
          "type": "string"
        },
        {
          "name": "_raceTime",
          "type": "uint256"
        }
      ],
      "payable": false,
      "stateMutability": "view",
      "type": "function"
    },
    {
      "constant": true,
      "inputs": [],
      "name": "getAllAddresses",
      "outputs": [
        {
          "name": "",
          "type": "address[]"
        }
      ],
      "payable": false,
      "stateMutability": "view",
      "type": "function"
    },
    {
      "constant": false,
      "inputs": [
        {
          "name": "_addressRunner",
          "type": "address"
        },
        {
          "name": "_raceTime",
          "type": "uint256"
        }
      ],
      "name": "setTimeRace",
      "outputs": [],
      "payable": false,
      "stateMutability": "nonpayable",
      "type": "function"
    },
    {
      "constant": false,
      "inputs": [
        {
          "name": "winner",
          "type": "address"
        }
      ],
      "name": "payPrice",
      "outputs": [],
      "payable": false,
      "stateMutability": "nonpayable",
      "type": "function"
    },
    {
      "constant": false,
      "inputs": [],
      "name": "destroyContract",
      "outputs": [],
      "payable": false,
      "stateMutability": "nonpayable",
      "type": "function"
    },
    {
      "constant": false,
      "inputs": [],
      "name": "enableEmergency",
      "outputs": [],
      "payable": false,
      "stateMutability": "nonpayable",
      "type": "function"
    }
  ],
  "bytecode": "0x60806040526000600255336000806101000a81548173ffffffffffffffffffffffffffffffffffffffff021916908373ffffffffffffffffffffffffffffffffffffffff160217905550611264806100586000396000f3006080604052600436106100c5576000357c0100000000000000000000000000000000000000000000000000000000900463ffffffff168063092a5cce146100ca57806324592b0d146100e15780632de6540f1461014e57806363a599a41461019b5780638da5cb5b146101ca5780638f32d59b146102215780639516a10414610250578063aca84b59146102bc578063b63f8c83146102ff578063b98aea41146103fb578063dd4b83151461059d578063e42c4e63146105c8578063e86ce2c5146105df575b600080fd5b3480156100d657600080fd5b506100df610636565b005b3480156100ed57600080fd5b5061010c60048036038101908080359060200190929190505050610683565b604051808273ffffffffffffffffffffffffffffffffffffffff1673ffffffffffffffffffffffffffffffffffffffff16815260200191505060405180910390f35b34801561015a57600080fd5b50610199600480360381019080803573ffffffffffffffffffffffffffffffffffffffff169060200190929190803590602001909291905050506106c1565b005b3480156101a757600080fd5b506101b06107a1565b604051808215151515815260200191505060405180910390f35b3480156101d657600080fd5b506101df6107b4565b604051808273ffffffffffffffffffffffffffffffffffffffff1673ffffffffffffffffffffffffffffffffffffffff16815260200191505060405180910390f35b34801561022d57600080fd5b506102366107d9565b604051808215151515815260200191505060405180910390f35b34801561025c57600080fd5b50610265610830565b6040518080602001828103825283818151815260200191508051906020019060200280838360005b838110156102a857808201518184015260208101905061028d565b505050509050019250505060405180910390f35b3480156102c857600080fd5b506102fd600480360381019080803573ffffffffffffffffffffffffffffffffffffffff1690602001909291905050506108d1565b005b6103f9600480360381019080803590602001908201803590602001908080601f0160208091040260200160405190810160405280939291908181526020018383808284378201915050505050509192919290803590602001908201803590602001908080601f016020809104026020016040519081016040528093929190818152602001838380828437820191505050505050919291929080359060200190929190803590602001908201803590602001908080601f016020809104026020016040519081016040528093929190818152602001838380828437820191505050505050919291929080359060200190929190505050610a10565b005b34801561040757600080fd5b5061043c600480360381019080803573ffffffffffffffffffffffffffffffffffffffff169060200190929190505050610d71565b60405180806020018060200186815260200180602001858152602001848103845289818151815260200191508051906020019080838360005b83811015610490578082015181840152602081019050610475565b50505050905090810190601f1680156104bd5780820380516001836020036101000a031916815260200191505b50848103835288818151815260200191508051906020019080838360005b838110156104f65780820151818401526020810190506104db565b50505050905090810190601f1680156105235780820380516001836020036101000a031916815260200191505b50848103825286818151815260200191508051906020019080838360005b8381101561055c578082015181840152602081019050610541565b50505050905090810190601f1680156105895780820380516001836020036101000a031916815260200191505b509850505050505050505060405180910390f35b3480156105a957600080fd5b506105b26110c9565b6040518082815260200191505060405180910390f35b3480156105d457600080fd5b506105dd611131565b005b3480156105eb57600080fd5b506105f4611170565b604051808273ffffffffffffffffffffffffffffffffffffffff1673ffffffffffffffffffffffffffffffffffffffff16815260200191505060405180910390f35b61063e6107d9565b151561064957600080fd5b6000809054906101000a900473ffffffffffffffffffffffffffffffffffffffff1673ffffffffffffffffffffffffffffffffffffffff16ff5b60018181548110151561069257fe5b906000526020600020016000915054906101000a900473ffffffffffffffffffffffffffffffffffffffff1681565b600060149054906101000a900460ff16151561079d576106df6107d9565b15156106ea57600080fd5b80600360008473ffffffffffffffffffffffffffffffffffffffff1673ffffffffffffffffffffffffffffffffffffffff168152602001908152602001600020600501819055507f39b06b46cec1d0170a5b37441548f7bd15e1773db77e2ea118cac606783cbaa48282604051808373ffffffffffffffffffffffffffffffffffffffff1673ffffffffffffffffffffffffffffffffffffffff1681526020018281526020019250505060405180910390a15b5050565b600060149054906101000a900460ff1681565b6000809054906101000a900473ffffffffffffffffffffffffffffffffffffffff1681565b60008060009054906101000a900473ffffffffffffffffffffffffffffffffffffffff1673ffffffffffffffffffffffffffffffffffffffff163373ffffffffffffffffffffffffffffffffffffffff1614905090565b606061083a6107d9565b151561084557600080fd5b60018054806020026020016040519081016040528092919081815260200182805480156108c757602002820191906000526020600020905b8160009054906101000a900473ffffffffffffffffffffffffffffffffffffffff1673ffffffffffffffffffffffffffffffffffffffff168152602001906001019080831161087d575b5050505050905090565b60008060149054906101000a900460ff161515610a0c576108f06107d9565b15156108fb57600080fd5b600460008060009054906101000a900473ffffffffffffffffffffffffffffffffffffffff1673ffffffffffffffffffffffffffffffffffffffff1673ffffffffffffffffffffffffffffffffffffffff1681526020019081526020016000205490506000600460008060009054906101000a900473ffffffffffffffffffffffffffffffffffffffff1673ffffffffffffffffffffffffffffffffffffffff1673ffffffffffffffffffffffffffffffffffffffff168152602001908152602001600020819055508173ffffffffffffffffffffffffffffffffffffffff166108fc829081150290604051600060405180830381858888f19350505050158015610a0a573d6000803e3d6000fd5b505b5050565b600060149054906101000a900460ff161515610d6a57610a3834674563918244f40000611178565b1515610a4357600080fd5b610a4c83611185565b1515610a5757600080fd5b60013390806001815401808255809150509060018203906000526020600020016000909192909190916101000a81548173ffffffffffffffffffffffffffffffffffffffff021916908373ffffffffffffffffffffffffffffffffffffffff1602179055505060e0604051908101604052803373ffffffffffffffffffffffffffffffffffffffff16815260200186815260200185815260200184815260200183815260200182815260200160006001811115610b1057fe5b815250600360003373ffffffffffffffffffffffffffffffffffffffff1673ffffffffffffffffffffffffffffffffffffffff16815260200190815260200160002060008201518160000160006101000a81548173ffffffffffffffffffffffffffffffffffffffff021916908373ffffffffffffffffffffffffffffffffffffffff1602179055506020820151816001019080519060200190610bb5929190611193565b506040820151816002019080519060200190610bd2929190611193565b50606082015181600301556080820151816004019080519060200190610bf9929190611193565b5060a0820151816005015560c08201518160060160006101000a81548160ff02191690836001811115610c2857fe5b021790555090505034600460008060009054906101000a900473ffffffffffffffffffffffffffffffffffffffff1673ffffffffffffffffffffffffffffffffffffffff1673ffffffffffffffffffffffffffffffffffffffff168152602001908152602001600020600082825401925050819055507fad043004001bae96f136503d87fce708d712d01737317839efedd842dce4ad35600460008060009054906101000a900473ffffffffffffffffffffffffffffffffffffffff1673ffffffffffffffffffffffffffffffffffffffff1673ffffffffffffffffffffffffffffffffffffffff1681526020019081526020016000205433604051808381526020018273ffffffffffffffffffffffffffffffffffffffff1673ffffffffffffffffffffffffffffffffffffffff1681526020019250505060405180910390a15b5050505050565b6060806000606060008060149054906101000a900460ff1615156110c057600360008773ffffffffffffffffffffffffffffffffffffffff1673ffffffffffffffffffffffffffffffffffffffff1681526020019081526020016000206001018054600181600116156101000203166002900480601f016020809104026020016040519081016040528092919081815260200182805460018160011615610100020316600290048015610e655780601f10610e3a57610100808354040283529160200191610e65565b820191906000526020600020905b815481529060010190602001808311610e4857829003601f168201915b50505050509450600360008773ffffffffffffffffffffffffffffffffffffffff1673ffffffffffffffffffffffffffffffffffffffff1681526020019081526020016000206002018054600181600116156101000203166002900480601f016020809104026020016040519081016040528092919081815260200182805460018160011615610100020316600290048015610f425780601f10610f1757610100808354040283529160200191610f42565b820191906000526020600020905b815481529060010190602001808311610f2557829003601f168201915b50505050509350600360008773ffffffffffffffffffffffffffffffffffffffff1673ffffffffffffffffffffffffffffffffffffffff168152602001908152602001600020600301549250600360008773ffffffffffffffffffffffffffffffffffffffff1673ffffffffffffffffffffffffffffffffffffffff1681526020019081526020016000206004018054600181600116156101000203166002900480601f0160208091040260200160405190810160405280929190818152602001828054600181600116156101000203166002900480156110645780601f1061103957610100808354040283529160200191611064565b820191906000526020600020905b81548152906001019060200180831161104757829003601f168201915b50505050509150600360008773ffffffffffffffffffffffffffffffffffffffff1673ffffffffffffffffffffffffffffffffffffffff1681526020019081526020016000206005015490508484848484945094509450945094505b91939590929450565b6000600460008060009054906101000a900473ffffffffffffffffffffffffffffffffffffffff1673ffffffffffffffffffffffffffffffffffffffff1673ffffffffffffffffffffffffffffffffffffffff16815260200190815260200160002054905090565b6111396107d9565b151561114457600080fd5b600060149054906101000a900460ff1615600060146101000a81548160ff021916908315150217905550565b600033905090565b6000818314905092915050565b600060128210159050919050565b828054600181600116156101000203166002900490600052602060002090601f016020900481019282601f106111d457805160ff1916838001178555611202565b82800160010185558215611202579182015b828111156112015782518255916020019190600101906111e6565b5b50905061120f9190611213565b5090565b61123591905b80821115611231576000816000905550600101611219565b5090565b905600a165627a7a7230582087f54af17f81b0c94c90ddefcce7f8a4bcb4763c1f5d190cec9b0a3d9ed17b2e0029",
  "source": "pragma solidity 0.4.24;\n\n\n/** \n* @title Enrollments into a Race\n* @author Antonio Cruz\n* @notice You can use this contract to enroll runners, simulate a race and pay a price.\n* @dev For more implementation details read the \"design_pattern_decisions.md\" document. \n*/\n\n// Import Ownable Contract\nimport \"./Ownable.sol\";\n// Import Enrollment Library \nimport \"./EnrollmentLib.sol\";\n\ncontract raceEnrollment is Ownable {\n\n    bool public emergencyStop;\n    modifier noEmergency \n    { \n        if (!emergencyStop) \n        _;\n    }\n    \n    modifier inEmergency \n    {\n        if (emergencyStop) \n        _;\n    }\n   \n    uint constant FEE_RACE = 5 ether;\n    address[] public allAdresses;\n    uint i=0;\n\n    enum Status {\n        Enrolled,\n        NotEnrolled\n    }\n\n    struct Runner {\n        address addressRunner;\n        string name;\n        string surname;\n        uint   age;\n        string dni;\n        uint   raceTime;\n        Status status;\n    }\n\n    //Look for runners enrolled by address\n    mapping (address => Runner) private runnersByAdress;\n    //Balance of the race's owner\n    mapping (address => uint) private balances;\n\n    // Events - publicize actions to external listeners\n    event logEnrollment(uint balanceOwner, address addressRunner);\n    event logSimulateTimeRace(address addressRunner, uint timeRace);\n\n\n    /**\n     * @notice Enroll runner in the race\n     * @dev Conditions to allow the enrollment are: Fee 5 ethers && Age >=18 years old.\n     * @param _name This is the name of the runner enrolled in the race.\n     * @param _surname This is the surname of the runner enrolled in the race\n     * @param _age This is the age of the runner enrolled in the race\n     * @param _dni This is the dni of the runner enrolled in the race\n     * @param _raceTime This is the time that took the runner to finish the race.\n     */\n    function enrollRunner(string _name, string _surname, uint _age, string _dni, uint _raceTime) \n    public \n    noEmergency\n    payable \n    {     \n      require(EnrollmentLib.isValidFee(msg.value, FEE_RACE));\n      require(EnrollmentLib.isOver18(_age));\n\n      allAdresses.push(msg.sender);\n      runnersByAdress[msg.sender] = Runner ({addressRunner: msg.sender, name: _name, surname: _surname, age: _age, dni: _dni,\n        raceTime: _raceTime, status: Status.Enrolled });\n      balances[owner] += msg.value;\n      emit logEnrollment(balances[owner], msg.sender); //Front catches this event\n    }\n\n    /**\n     * @notice Get the address of the runner enrolled\n     * @dev Function is used in the frontend to display the address of the current user\n     * @return address Address of the runner enrolled\n     */    \n    function getAddressRunner() public view returns (address) {\n        return msg.sender;\n    }\n   \n    /**\n     * @notice Get the balance of the funds collected during the enrollment (Balance of the owner of the race)\n     * @dev Function is used in the frontend to display the total funds collected during the enrollment process.\n     * @return uint Total funds collected.\n     */      \n    function getBalanceTotalEnrollments() public view returns (uint) {\n        return balances[owner];\n    }\n\n    /** \n     * @notice Get runner info inside the Runner struct.\n     * @param _addressRunner Address of the runner for whom the information is to be retrieved.\n     * @return string Name of the runner\n     * @return string Surname of the runner \n     * @return uint Age of the runner\n     * @return string dni of the runner\n     * @return uint Time that took the runner to finish the race. If the race has not been started time = 0.\n     */\n    function getAttributesRunner(address _addressRunner) \n    public \n    noEmergency\n    view \n    returns (string _name, string _surname, uint _age, string _dni, uint _raceTime)\n    {\n        \n        _name = runnersByAdress[_addressRunner].name;\n        _surname = runnersByAdress[_addressRunner].surname;\n        _age = runnersByAdress[_addressRunner].age;\n        _dni = runnersByAdress[_addressRunner].dni;\n        _raceTime = runnersByAdress[_addressRunner].raceTime;\n        \n        return (_name, _surname, _age, _dni, _raceTime);\n    }\n\n    /**\n     * @notice Get all the runners'addresses\n     * @dev Function is used in the frontend to display each runner's address during the simulation race process.\n     * @return address[] Array that contains all the runners' addresses\n     */       \n    function getAllAddresses() \n    public \n    onlyOwner\n    view \n    returns (address[]) \n    {\n        return allAdresses;\n    }\n\n    /**\n     * @notice Set the simulated time performed by each runner to finish the race\n     * @dev Function is used to set the raceTime. Owner of the smart contract can set the race time for each runner.\n     * @param _addressRunner Address of the runner \n     * @param _raceTime Time performed by the runner to finish the race.\n     */       \n    function setTimeRace(address _addressRunner, uint _raceTime) \n    public\n    noEmergency     \n    onlyOwner\n    {\n      runnersByAdress[_addressRunner].raceTime = _raceTime;\n      emit logSimulateTimeRace(_addressRunner, _raceTime); //Front catches this event\n\n    }\n\n    /**\n     * @notice Pay a price to the winner\n     * @dev Owner of the smart contract can pay the price.\n     * @param winner address to pay the price\n     */      \n    function payPrice(address winner) \n    public \n    noEmergency\n    onlyOwner\n    {\n           uint amountPrice = balances[owner];\n           balances[owner] = 0;\n           winner.transfer(amountPrice);\n    }\n\n\n    /** \n     * @notice Fallback function - Called if other functions don't match call or sent ether without data\n     * Typically, called when invalid data is sent\n     * Added so ether sent to this contract is reverted if the contract fails. Otherwise, the sender's money is transferred to contract\n     */\n    function () public payable{ \n        revert();\n    }\n\n      \n    /** \n     * @notice Destroy all data stored.\n     * Smart contract kill function. \n     */\n    function destroyContract ()\n        public\n        onlyOwner\n    {\n        selfdestruct(owner);\n    }\n\n    \n    /**\n    * @notice Enable the emergency stop.\n    * @dev Owner of the smart contract activate the emergency stop.\n    */\n    function enableEmergency() \n        public \n        onlyOwner\n    {\n        emergencyStop = !emergencyStop;        \n    }\n}",
  "sourcePath": "/home/antonio/src/MASTERETH/PEC3/marathon/contracts/raceEnrollment.sol",
  "compiler": {
    "name": "solc",
    "version": "0.4.24+commit.e67f0147.Emscripten.clang"
  },
  "schemaVersion": "2.0.1",
  "updatedAt": "2018-11-25T17:13:20.850Z"
}