{
  "contractName": "raceEnrollment",
  "abi": [
    {
      "constant": true,
      "inputs": [],
      "name": "owner",
      "outputs": [
        {
          "name": "",
          "type": "address"
        }
      ],
      "payable": false,
      "stateMutability": "view",
      "type": "function"
    },
    {
      "constant": true,
      "inputs": [],
      "name": "isOwner",
      "outputs": [
        {
          "name": "",
          "type": "bool"
        }
      ],
      "payable": false,
      "stateMutability": "view",
      "type": "function"
    },
    {
      "payable": true,
      "stateMutability": "payable",
      "type": "fallback"
    },
    {
      "anonymous": false,
      "inputs": [
        {
          "indexed": false,
          "name": "balanceOwner",
          "type": "uint256"
        },
        {
          "indexed": false,
          "name": "addressRunner",
          "type": "address"
        }
      ],
      "name": "logEnrollment",
      "type": "event"
    },
    {
      "constant": false,
      "inputs": [
        {
          "name": "_name",
          "type": "string"
        },
        {
          "name": "_surname",
          "type": "string"
        }
      ],
      "name": "enrollRunner",
      "outputs": [],
      "payable": true,
      "stateMutability": "payable",
      "type": "function"
    },
    {
      "constant": true,
      "inputs": [],
      "name": "getAddressRunner",
      "outputs": [
        {
          "name": "",
          "type": "address"
        }
      ],
      "payable": false,
      "stateMutability": "view",
      "type": "function"
    },
    {
      "constant": true,
      "inputs": [],
      "name": "getBalanceTotalEnrollments",
      "outputs": [
        {
          "name": "",
          "type": "uint256"
        }
      ],
      "payable": false,
      "stateMutability": "view",
      "type": "function"
    },
    {
      "constant": false,
      "inputs": [
        {
          "name": "winner",
          "type": "address"
        }
      ],
      "name": "payPrice",
      "outputs": [],
      "payable": false,
      "stateMutability": "nonpayable",
      "type": "function"
    }
  ],
  "bytecode": "0x6080604052674563918244f40000600155336000806101000a81548173ffffffffffffffffffffffffffffffffffffffff021916908373ffffffffffffffffffffffffffffffffffffffff16021790555061075f8061005f6000396000f300608060405260043610610078576000357c0100000000000000000000000000000000000000000000000000000000900463ffffffff168063463ebb401461007d5780638da5cb5b1461011f5780638f32d59b14610176578063aca84b59146101a5578063dd4b8315146101e8578063e86ce2c514610213575b600080fd5b61011d600480360381019080803590602001908201803590602001908080601f0160208091040260200160405190810160405280939291908181526020018383808284378201915050505050509192919290803590602001908201803590602001908080601f016020809104026020016040519081016040528093929190818152602001838380828437820191505050505050919291929050505061026a565b005b34801561012b57600080fd5b5061013461046c565b604051808273ffffffffffffffffffffffffffffffffffffffff1673ffffffffffffffffffffffffffffffffffffffff16815260200191505060405180910390f35b34801561018257600080fd5b5061018b610491565b604051808215151515815260200191505060405180910390f35b3480156101b157600080fd5b506101e6600480360381019080803573ffffffffffffffffffffffffffffffffffffffff1690602001909291905050506104e8565b005b3480156101f457600080fd5b506101fd610611565b6040518082815260200191505060405180910390f35b34801561021f57600080fd5b50610228610679565b604051808273ffffffffffffffffffffffffffffffffffffffff1673ffffffffffffffffffffffffffffffffffffffff16815260200191505060405180910390f35b61027634600154610681565b151561028157600080fd5b81600260003373ffffffffffffffffffffffffffffffffffffffff1673ffffffffffffffffffffffffffffffffffffffff16815260200190815260200160002060010190805190602001906102d792919061068e565b5080600260003373ffffffffffffffffffffffffffffffffffffffff1673ffffffffffffffffffffffffffffffffffffffff168152602001908152602001600020600201908051906020019061032e92919061068e565b5034600460008060009054906101000a900473ffffffffffffffffffffffffffffffffffffffff1673ffffffffffffffffffffffffffffffffffffffff1673ffffffffffffffffffffffffffffffffffffffff168152602001908152602001600020600082825401925050819055507fad043004001bae96f136503d87fce708d712d01737317839efedd842dce4ad35600460008060009054906101000a900473ffffffffffffffffffffffffffffffffffffffff1673ffffffffffffffffffffffffffffffffffffffff1673ffffffffffffffffffffffffffffffffffffffff1681526020019081526020016000205433604051808381526020018273ffffffffffffffffffffffffffffffffffffffff1673ffffffffffffffffffffffffffffffffffffffff1681526020019250505060405180910390a15050565b6000809054906101000a900473ffffffffffffffffffffffffffffffffffffffff1681565b60008060009054906101000a900473ffffffffffffffffffffffffffffffffffffffff1673ffffffffffffffffffffffffffffffffffffffff163373ffffffffffffffffffffffffffffffffffffffff1614905090565b60006104f2610491565b15156104fd57600080fd5b600460008060009054906101000a900473ffffffffffffffffffffffffffffffffffffffff1673ffffffffffffffffffffffffffffffffffffffff1673ffffffffffffffffffffffffffffffffffffffff1681526020019081526020016000205490506000600460008060009054906101000a900473ffffffffffffffffffffffffffffffffffffffff1673ffffffffffffffffffffffffffffffffffffffff1673ffffffffffffffffffffffffffffffffffffffff168152602001908152602001600020819055508173ffffffffffffffffffffffffffffffffffffffff166108fc829081150290604051600060405180830381858888f1935050505015801561060c573d6000803e3d6000fd5b505050565b6000600460008060009054906101000a900473ffffffffffffffffffffffffffffffffffffffff1673ffffffffffffffffffffffffffffffffffffffff1673ffffffffffffffffffffffffffffffffffffffff16815260200190815260200160002054905090565b600033905090565b6000818314905092915050565b828054600181600116156101000203166002900490600052602060002090601f016020900481019282601f106106cf57805160ff19168380011785556106fd565b828001600101855582156106fd579182015b828111156106fc5782518255916020019190600101906106e1565b5b50905061070a919061070e565b5090565b61073091905b8082111561072c576000816000905550600101610714565b5090565b905600a165627a7a7230582043da1c61511eb55c2b47a18c7167f1c48a7433f2aa264d73d4b920fe391f66f90029",
  "source": "pragma solidity ^0.4.24;\n\n/**\n * Import Ownable Contract\n */\n\nimport \"./Ownable.sol\";\n/**\n * Import Enrollment Library\n */\nimport \"./EnrollmentLib.sol\";\n\ncontract raceEnrollment is Ownable {\n\n    uint feeRace = 5 ether;\n\n    enum State {\n        Enrolled,\n        NotEnrolled\n    }\n\n    struct Runner {\n        address addressRunner;\n        string name;\n        string surname;\n        string age;\n        string dni;\n        uint   raceTime;\n        State  status;\n    }\n\n    //Look for runners enrolled by address\n    mapping (address => Runner) private runnersByAdress;\n    //Look for runners by race time\n    mapping (uint => Runner) private runnersByRaceTime;\n    //Balance of the race's owner\n    mapping (address => uint) private balances;\n\n    // Events - publicize actions to external listeners\n    event logEnrollment(uint balanceOwner, address addressRunner);\n\n    /// @notice Enroll runner in the race\n    /// @return The balance of the funds collected during the enrollment (Balance of the race's owner)\n    /// @return The address of the enrolled runner\n    function enrollRunner(string _name, string _surname) public payable {     \n      require(EnrollmentLib.isValidFee(msg.value, feeRace));\n      runnersByAdress[msg.sender].name = _name;\n      runnersByAdress[msg.sender].surname = _surname;\n\n      balances[owner] += msg.value;\n      emit logEnrollment(balances[owner], msg.sender); //Front catches this event\n    }\n\n    // Get the address of the runner enrolled\n    function getAddressRunner() public view returns (address) {\n        return msg.sender;\n    }\n   \n     // Get the balance of the funds collected during the enrollment (Balance of the race's owner)\n    function getBalanceTotalEnrollments() public view returns (uint) {\n        return balances[owner];\n    }\n\n\n    /// @notice Only the Owner of the Race can pay a price to the winner\n    /// @param  winner address to pay the price\n    function payPrice(address winner) \n    public \n    onlyOwner\n    {\n           uint amountPrice = balances[owner];\n           balances[owner] = 0;\n           winner.transfer(amountPrice);\n    }\n\n\n    // Fallback function - Called if other functions don't match call or sent ether without data\n    // Typically, called when invalid data is sent\n    // Added so ether sent to this contract is reverted if the contract fails\n    // otherwise, the sender's money is transferred to contract\n    function () public payable{ \n        revert();\n    }\n}",
  "sourcePath": "/home/antonio/src/MASTERETH/PEC3/marathon/contracts/raceEnrollment.sol",
  "compiler": {
    "name": "solc",
    "version": "0.4.24+commit.e67f0147.Emscripten.clang"
  },
  "schemaVersion": "2.0.1",
  "updatedAt": "2018-11-05T21:36:42.226Z"
}